{
  "contractName": "MedicalDataSharing",
  "abi": [
    {
      "constant": true,
      "inputs": [
        {
          "name": "",
          "type": "address"
        },
        {
          "name": "",
          "type": "uint256"
        }
      ],
      "name": "approvedHospitalByPatient",
      "outputs": [
        {
          "name": "id",
          "type": "uint256"
        },
        {
          "name": "hsAccount",
          "type": "address"
        },
        {
          "name": "allow",
          "type": "bool"
        }
      ],
      "payable": false,
      "stateMutability": "view",
      "type": "function",
      "signature": "0x2556d35f"
    },
    {
      "constant": true,
      "inputs": [],
      "name": "hospitalCount",
      "outputs": [
        {
          "name": "",
          "type": "uint256"
        }
      ],
      "payable": false,
      "stateMutability": "view",
      "type": "function",
      "signature": "0x350dadb7"
    },
    {
      "constant": true,
      "inputs": [
        {
          "name": "",
          "type": "uint256"
        }
      ],
      "name": "access",
      "outputs": [
        {
          "name": "id",
          "type": "uint256"
        },
        {
          "name": "hsAccount",
          "type": "address"
        },
        {
          "name": "allow",
          "type": "bool"
        }
      ],
      "payable": false,
      "stateMutability": "view",
      "type": "function",
      "signature": "0x803ad4de"
    },
    {
      "anonymous": false,
      "inputs": [
        {
          "indexed": false,
          "name": "id",
          "type": "uint256"
        },
        {
          "indexed": false,
          "name": "hsAccount",
          "type": "address"
        },
        {
          "indexed": false,
          "name": "allow",
          "type": "bool"
        }
      ],
      "name": "hospitalAllowed",
      "type": "event",
      "signature": "0x6d170cb55606da2a211ce66c8d592b01e1f499932677dfb8586871b08b7e1b5a"
    },
    {
      "constant": false,
      "inputs": [
        {
          "name": "_address",
          "type": "address"
        },
        {
          "name": "_allow",
          "type": "bool"
        }
      ],
      "name": "createAccess",
      "outputs": [],
      "payable": false,
      "stateMutability": "nonpayable",
      "type": "function",
      "signature": "0x966565b7"
    }
  ],
  "bytecode": "0x60806040526000805534801561001457600080fd5b50610462806100246000396000f3fe608060405260043610610062576000357c0100000000000000000000000000000000000000000000000000000000900463ffffffff1680632556d35f14610067578063350dadb714610114578063803ad4de1461013f578063966565b7146101cc575b600080fd5b34801561007357600080fd5b506100c06004803603604081101561008a57600080fd5b81019080803573ffffffffffffffffffffffffffffffffffffffff16906020019092919080359060200190929190505050610229565b604051808481526020018373ffffffffffffffffffffffffffffffffffffffff1673ffffffffffffffffffffffffffffffffffffffff16815260200182151515158152602001935050505060405180910390f35b34801561012057600080fd5b5061012961028d565b6040518082815260200191505060405180910390f35b34801561014b57600080fd5b506101786004803603602081101561016257600080fd5b8101908080359060200190929190505050610293565b604051808481526020018373ffffffffffffffffffffffffffffffffffffffff1673ffffffffffffffffffffffffffffffffffffffff16815260200182151515158152602001935050505060405180910390f35b3480156101d857600080fd5b50610227600480360360408110156101ef57600080fd5b81019080803573ffffffffffffffffffffffffffffffffffffffff1690602001909291908035151590602001909291905050506102ea565b005b6002602052816000526040600020602052806000526040600020600091509150508060000154908060010160009054906101000a900473ffffffffffffffffffffffffffffffffffffffff16908060010160149054906101000a900460ff16905083565b60005481565b60016020528060005260406000206000915090508060000154908060010160009054906101000a900473ffffffffffffffffffffffffffffffffffffffff16908060010160149054906101000a900460ff16905083565b600080815480929190600101919050555060606040519081016040528060005481526020018373ffffffffffffffffffffffffffffffffffffffff16815260200182151581525060016000805481526020019081526020016000206000820151816000015560208201518160010160006101000a81548173ffffffffffffffffffffffffffffffffffffffff021916908373ffffffffffffffffffffffffffffffffffffffff16021790555060408201518160010160146101000a81548160ff0219169083151502179055509050507f6d170cb55606da2a211ce66c8d592b01e1f499932677dfb8586871b08b7e1b5a6000548383604051808481526020018373ffffffffffffffffffffffffffffffffffffffff1673ffffffffffffffffffffffffffffffffffffffff16815260200182151515158152602001935050505060405180910390a1505056fea165627a7a72305820a0065a9c285aa639466b4ce13c36185b131b5b7468ed7887ddad426ca7e0205b0029",
  "source": "pragma solidity ^0.5.0;\n\n/**\n * The Mds contract does this and that...\n */\ncontract MedicalDataSharing {\n\tuint public hospitalCount = 0;\n\n\tstruct accessControl {\n\t\t\tuint id;\n\t\t\taddress hsAccount;\n\t\t\tbool allow;\n\t\t}\n\n\tmapping (uint => accessControl) public access;\n\tmapping (address => mapping (uint => accessControl) ) public approvedHospitalByPatient;\n\tevent hospitalAllowed(\n\t\t\tuint id,\n\t\t\taddress hsAccount,\n\t\t\tbool allow\n\t\t);\n\n\tfunction createAccess(address _address, bool _allow) public {\n\t\thospitalCount ++;\n\t\taccess[hospitalCount] = accessControl(hospitalCount, _address, _allow);\n\t\temit hospitalAllowed(hospitalCount, _address, _allow);\n\t}\t\t\n}\n",
  "sourcePath": "/home/maclin/Documents/Medical_data_sharing/contracts/MedicalDataShaing.sol",
  "compiler": {
    "name": "solc",
    "version": "0.5.0+commit.1d4f565a.Emscripten.clang"
  },
  "schemaVersion": "3.0.1",
  "updatedAt": "2019-02-17T23:46:43.181Z",
  "devdoc": {
    "methods": {}
  },
  "userdoc": {
    "methods": {},
    "notice": "The Mds contract does this and that..."
  }
}